{
  "contractName": "KVstore",
  "abi": [
    {
      "constant": true,
      "inputs": [
        {
          "name": "key",
          "type": "string"
        }
      ],
      "name": "get",
      "outputs": [
        {
          "name": "",
          "type": "string"
        }
      ],
      "payable": false,
      "stateMutability": "view",
      "type": "function"
    },
    {
      "constant": false,
      "inputs": [
        {
          "name": "key",
          "type": "string"
        },
        {
          "name": "value",
          "type": "string"
        }
      ],
      "name": "set",
      "outputs": [],
      "payable": false,
      "stateMutability": "nonpayable",
      "type": "function"
    }
  ],
  "bytecode": "0x6060604052341561000f57600080fd5b6104438061001e6000396000f30060606040526004361061004c576000357c0100000000000000000000000000000000000000000000000000000000900463ffffffff168063693ec85e14610051578063e942b51614610127575b600080fd5b341561005c57600080fd5b6100ac600480803590602001908201803590602001908080601f016020809104026020016040519081016040528093929190818152602001838380828437820191505050505050919050506101c7565b6040518080602001828103825283818151815260200191508051906020019080838360005b838110156100ec5780820151818401526020810190506100d1565b50505050905090810190601f1680156101195780820380516001836020036101000a031916815260200191505b509250505060405180910390f35b341561013257600080fd5b6101c5600480803590602001908201803590602001908080601f0160208091040260200160405190810160405280939291908181526020018383808284378201915050505050509190803590602001908201803590602001908080601f016020809104026020016040519081016040528093929190818152602001838380828437820191505050505050919050506102da565b005b6101cf61035e565b6000826040518082805190602001908083835b60208310151561020757805182526020820191506020810190506020830392506101e2565b6001836020036101000a03801982511681845116808217855250505050505090500191505090815260200160405180910390208054600181600116156101000203166002900480601f0160208091040260200160405190810160405280929190818152602001828054600181600116156101000203166002900480156102ce5780601f106102a3576101008083540402835291602001916102ce565b820191906000526020600020905b8154815290600101906020018083116102b157829003601f168201915b50505050509050919050565b806000836040518082805190602001908083835b60208310151561031357805182526020820191506020810190506020830392506102ee565b6001836020036101000a03801982511681845116808217855250505050505090500191505090815260200160405180910390209080519060200190610359929190610372565b505050565b602060405190810160405280600081525090565b828054600181600116156101000203166002900490600052602060002090601f016020900481019282601f106103b357805160ff19168380011785556103e1565b828001600101855582156103e1579182015b828111156103e05782518255916020019190600101906103c5565b5b5090506103ee91906103f2565b5090565b61041491905b808211156104105760008160009055506001016103f8565b5090565b905600a165627a7a72305820109691c3828d822e3b93a49cc04a14b46de9d502ee9f25bd9648204bfe007c460029",
  "source": "pragma solidity ^0.4.0;\n\ncontract KVstore {\n\tmapping(string=>string) store;\n \n\tfunction get(string key) public view returns(string) {\n\t\treturn store[key];\n\t}\n \n\tfunction set(string key, string value) public{\n    store[key] = value;\n  }\n}\n",
  "sourcePath": "/home/kai/Probe1--Dapp/client1/contracts/KVstore.sol",
  "compiler": {
    "name": "solc",
    "version": "0.4.19+commit.c4cbbb05.Emscripten.clang"
  },
  "schemaVersion": "1.0.1",
  "updatedAt": "2018-04-16T19:21:44.962Z"
}