{
  "contractName": "Ownerbalance",
  "abi": [
    {
      "constant": false,
      "inputs": [],
      "name": "ownerbalancereturner",
      "outputs": [],
      "payable": false,
      "stateMutability": "nonpayable",
      "type": "function"
    },
    {
      "constant": true,
      "inputs": [],
      "name": "getOwnerBalance",
      "outputs": [
        {
          "name": "",
          "type": "uint256"
        }
      ],
      "payable": false,
      "stateMutability": "view",
      "type": "function"
    }
  ],
  "bytecode": "0x6060604052341561000f57600080fd5b61013d8061001e6000396000f30060606040526004361061004c576000357c0100000000000000000000000000000000000000000000000000000000900463ffffffff168063590791f214610051578063d3152a1e1461007a575b600080fd5b341561005c57600080fd5b61006461008f565b6040518082815260200191505060405180910390f35b341561008557600080fd5b61008d6100cf565b005b60008060009054906101000a900473ffffffffffffffffffffffffffffffffffffffff1673ffffffffffffffffffffffffffffffffffffffff1631905090565b336000806101000a81548173ffffffffffffffffffffffffffffffffffffffff021916908373ffffffffffffffffffffffffffffffffffffffff1602179055505600a165627a7a723058207c3ec8c486ff043231faa66ef6a71103960e4173763acfec4f6a71c81537ca5d0029",
  "source": "contract Ownerbalance {\n\n    address owner;\n\n    function ownerbalancereturner() public {\n        owner = msg.sender; \n    }\n\n    function getOwnerBalance() constant returns (uint) {\n        return owner.balance;\n    }\n}\n",
  "sourcePath": "/home/kai/Probe1--Dapp/client1/contracts/Balance.sol",
  "compiler": {
    "name": "solc",
    "version": "0.4.19+commit.c4cbbb05.Emscripten.clang"
  },
  "schemaVersion": "1.0.1",
  "updatedAt": "2018-04-16T19:21:44.962Z"
}